:10000000EFC000000CC100000AC1000008C10000E0
:1000100006C100000C94930F02C1000000C1000053
:10002000FEC000000C940B0BFAC00000F8C00000EA
:10003000F6C00000F4C000000C94680A0C94EF0AAB
:100040000C94720AECC00000EAC00000E8C0000096
:10005000E6C000000C94CE0AE2C00000E0C0000040
:10006000DEC00000DCC00000DAC00000D8C0000024
:10007000D6C00000D4C00000D2C00000D0C0000034
:10008000CEC00000CCC00000CAC000006E616E008F
:10009000696E66006364696E6F70737578585B652E
:1000A000666745464700616E006E66696E697479E1
:1000B00000CDCCCC3D0AD7233C17B7D13877CC2B19
:1000C000329595E6241FB14F0A000020410000C878
:1000D0004200401C4620BCBE4CCA1B0E5AAEC59DF9
:1000E0007425752C0000407A10F35A00A0724E1847
:1000F000090010A5D4E80000E87648170000E40BDA
:1001000054020000CA9A3B000000E1F5050000809F
:10011000969800000040420F000000A086010000F9
:1001200000102700000000E8030000000064000049
:100130000000000A00000000000100000000002C88
:1001400076D888DC674F0823DFC1DFAE59E1B1B74D
:1001500096E5E3E453C63AE651997696E8E6C2841A
:1001600026EB898C9B62ED407C6FFCEFBC9C9F4032
:10017000F2BAA56FA5F490055A2AF75C936B6CF957
:10018000676DC11BFCE0E40D47FEF520E6B500D02D
:10019000ED902E0300943577050080841E08000042
:1001A000204E0A000000C80C333333330F986E1210
:1001B000831141EF8D2114893BE65516CFFEE6DB16
:1001C00018D1844B381BF77C1D901DA4BBE4242060
:1001D0003284725E228100C9F124ECA1E53D270042
:1001E00011241FBECFEFD0E1DEBFCDBF11E0A0E0F4
:1001F000B1E0E2EEF4E200E00BBF02C007900D9226
:10020000A631B107D9F711E0A6E1B1E001C01D9216
:10021000A53CB107E1F70E94AB0B0C946F12F0CE36
:100220002F923F924F925F926F927F928F929F9206
:10023000AF92BF92CF92DF92EF92FF920F931F93F4
:10024000DF93CF93CDB7DEB761970FB6F894DEBFDB
:100250000FBECDBF3C017F876E876A01FC0117820C
:100260001682838181FD03C06FEF7FEF6FC39E0114
:100270002F5F3F4F398B288BF3012381EE85FF855C
:1002800023FD859123FF8191FF87EE87882309F461
:100290005AC3853251F4EE85FF8523FD859123FFF6
:1002A0008191FF87EE87853229F490E0B3010E94A7
:1002B0006711E2CF982F10E0882499241032B0F40F
:1002C0009B3269F09C3228F4903251F0933271F4F1
:1002D0000BC09D3239F0903349F4116028C0126090
:1002E000146025C0186023C0106121C017FD2AC00A
:1002F000892F80538A3078F416FF06C0FAE09F9E5B
:10030000902C1124980E13C03AE0839E802C112467
:10031000880E10620CC09E3221F416FD14C31064C6
:1003200006C09C3611F4106802C0983659F4EE8568
:10033000FF8523FD959123FF9191FF87EE879923F8
:1003400009F0BCCF892F8554833020F4812F806140
:10035000905E07C0892F8556833008F09FC1812F9A
:100360008F7E86FD02C076E0972E6FE3F62EF82290
:10037000953619F4F0E4FF2A07C0963619F420E800
:10038000F22A02C091109A94F7FE0AC03BE3391595
:1003900018F45CE3B52E02C0B92CB39427E009C071
:1003A00047E0491520F4BB2447E0942EF7CF292DD0
:1003B000BB24C60104969D878C87F60160817181FC
:1003C00082819381AE014F5F5F4F0B2D0E941C1005
:1003D0006C010981202E332400FF04C003FD02C0FC
:1003E0001DE209C0F1FE02C01BE205C0F2FC02C022
:1003F00010E001C010E2C1018C709070892BB9F13E
:10040000112311F483E001C084E0881510F08824E2
:100410000AC0881AF3FC07C080E290E0B3010E9492
:1004200067118A94C9F7112329F0812F90E0B30155
:100430000E94671123FE03C00CE810E00EC000E923
:1004400010E00BC0E114F10409F0805290E0B30118
:100450000E9467110F5F1F4F05C0EF2CFF24F0E1D2
:10046000EF22FF24F8018491882361F714C1F7FE7D
:1004700012C0BC0C24FE04C08A81813309F4BA94F2
:100480001B141CF0BB24B3942DC0F8E0FB1550F5F1
:1004900038E0B32E27C0F6FC25C0892D90E08C15DE
:1004A0009D054CF02CEFC2162FEFD20624F030E859
:1004B000F32A01C09A94992049F0E2E0F0E0EC0FB1
:1004C000FD1FE90DF11D80818033A1F3F7FE0AC005
:1004D000B92CB394892D90E0C816D90614F099244C
:1004E00001C09C18F7FC03C025E030E009C01C14D3
:1004F0001D041CF021E030E003C096012F5F3F4F48
:10050000112311F02F5F3F4F992029F0892D90E0A2
:100510000196280F391F882D90E02817390714F00D
:10052000882401C0821A4F2C5524C2018970907012
:10053000892B39F008C080E290E0B3010E94671176
:100540008A948820C1F7112329F0812F90E0B3010C
:100550000E94671143FE07C008C080E390E0B3012A
:100560000E9467118A948820C1F7F7FE46C0860171
:10057000D7FE02C000E010E076010894E11CF11CF7
:10058000E01AF10A41E050E04C0F5D1FE40EF51E49
:1005900026014B185108892D90E0AA24BB24A81AE3
:1005A000B90A5FEF0F3F150729F48EE290E0B3011F
:1005B0000E946711C016D10634F0401651061CF493
:1005C000F701808101C080E3015010400894E11CD4
:1005D000F11C0A151B052CF090E0B3010E94671175
:1005E000E0CF0C151D0539F49A81963318F4953334
:1005F00011F424FE81E390E04BC08A81813309F03D
:100600000F7E90E0B3010E9467119920A1F08EE265
:1006100090E0B3010E94671112E0E1E0F0E0EC0F1E
:10062000FD1FE10FF11D1F5F808190E0B3010E946B
:1006300067119A9491F744FC03C085E690E002C0EC
:1006400085E490E0B3010E946711D7FC05C0C11496
:10065000D10441F404FF06C0D094C194D108D394CE
:100660008DE201C08BE290E0B3010E94671180E34C
:1006700005C08F5F26EF3FEFC20ED31E3AE0C316D0
:10068000D104BCF790E0B3010E946711C601C09687
:10069000B3010E946711CC84DD8452C1933631F0DE
:1006A000933799F0933509F059C023C0F601808142
:1006B00089835E010894A11CB11C22E030E0C20EC7
:1006C000D31E21E0E22EF12C12C0F601A080B180F1
:1006D00016FD03C06FEF7FEF02C0692D70E022E0CE
:1006E00030E0C20ED31EC5010E941A117C011F7793
:1006F00013C0F601A080B18016FD03C06FEF7FEF3D
:1007000002C0692D70E022E030E0C20ED31EC501A8
:100710000E940F117C01106813FF07C01BC080E20C
:1007200090E0B3010E9467118A94882D90E0E8164A
:10073000F906A8F30FC0F50117FD859117FF819108
:100740005F0190E0B3010E94671181108A940894C0
:10075000E108F108E114F10471F7F2C0943611F0E8
:10076000993689F517FF08C0F60120813181428151
:10077000538184E090E00AC0F601808191819C0160
:10078000442737FD4095542F82E090E0C80ED91ED3
:100790009FE6F92EF12257FF09C0509540953095FC
:1007A00021953F4F4F4F5F4F90E8F92ACA01B90199
:1007B000AE014F5F5F4F2AE030E00E940E12E82E3C
:1007C000E889EE1A41C0953721F41F7E2AE030E017
:1007D0001CC0197F9F3661F0903720F4983509F0DE
:1007E000B2C00FC0903739F0983709F0ACC004C0E0
:1007F00028E030E00AC0106114FD146020E130E010
:1008000004C014FD166020E132E017FF08C0F601B5
:10081000608171818281938144E050E008C0F601DB
:1008200080819181BC0180E090E042E050E0C40E04
:10083000D51EAE014F5F5F4F0E940E12E82E588901
:10084000E51A8FE7F82EF122F6FE0BC08EEFF822A4
:10085000E91438F4F4FE07C0F2FC05C09FEEF9225B
:1008600002C01E2D01C0192DF4FE0DC0FE01EE0DBB
:10087000F11D8081803319F4E9EEFE2208C01F5F6C
:10088000F2FE05C003C08F2D867809F01F5F0F2D83
:10089000F3FC14C0F0FE0FC0181510F09E2C0BC016
:1008A0009E2C980C911A182D06C080E290E0B3019E
:1008B0000E9467111F5F1815C0F304C0181510F4CB
:1008C000811A01C0882404FF0FC080E390E0B301C7
:1008D0000E94671102FF1DC001FD03C088E790E080
:1008E0000EC088E590E00BC0802F867891F001FF64
:1008F00002C08BE201C080E2F7FC8DE290E0B30120
:100900000E94671106C080E390E0B3010E94671166
:100910009A94E914C0F3EA94E1E0F0E0EC0FFD1FD3
:10092000EE0DF11D808190E0B3010E946711EE2071
:1009300091F706C080E290E0B3010E9467118A94AB
:100940008820C1F799CCF30166817781CB0161964C
:100950000FB6F894DEBF0FBECDBFCF91DF911F91D0
:100960000F91FF90EF90DF90CF90BF90AF909F904E
:100970008F907F906F905F904F903F902F90089551
:10098000FC0120FD08C023FD05C022FF02C07383C7
:100990006283518340830895EF92FF920F931F93D8
:1009A00044FF02C033E011C046FF02C034E00DC076
:1009B000DB01FC01AA0FBB1FEE1FFF1F1094D1F734
:1009C0006A0F7B1F8E1F9F1F31E0660F771F881FE6
:1009D000991F3150D1F77B018C01E20EF11C011DF2
:1009E000111DA8019701B701CA011F910F91FF9036
:1009F000EF9008950F931F93CF93DF938C01C8015D
:100A00000E942511EC0197FD08C00E94F410892B6B
:100A1000B1F7CE01B8010E94F411CE01DF91CF9160
:100A20001F910F9108958F929F92AF92BF92DF9284
:100A3000EF92FF920F931F93CF93DF935C01EB0133
:100A40004A01122F0E942511AC018B3219F08D3210
:100A500051F41068219709F46BC0C5010E9425115B
:100A6000AC0197FD65C06DEFD62ED1228D2D807320
:100A700001F54033F1F4219709F446C0C5010E9405
:100A80002511AC0197FD40C082E0D82A483711F00B
:100A9000483559F480E4D82A2197B1F1C5010E9464
:100AA0002511AC0199232CF42FC0D6FC02C080E1A3
:100AB000D82AEE24FF248701242F2053283088F0E1
:100AC000D4FC09C02A3068F0D6FE05C02F7D822FE5
:100AD0008151863028F0CA01B5010E94F41111C07D
:100AE0002750C801B7014D2D57DF7B018C0182E0F3
:100AF000D82A219761F0C5010E942511AC0197FF0A
:100B0000DBCFD1FC04C014C0EE24FF248701D7FE44
:100B100008C010950095F094E094E11CF11C011DB3
:100B2000111DC401B801A7012D2D2ADF81E001C0EC
:100B300080E0DF91CF911F910F91FF90EF90DF90B8
:100B4000BF90AF909F908F9008956F927F928F92F9
:100B50009F92AF92BF92CF92DF92EF92FF920F934C
:100B60001F93DF93CF93CDB7DEB7A0970FB6F8945E
:100B7000DEBF0FBECDBF5C016B018A017901FE01B2
:100B8000319680E2DF011D928A95E9F770E030E04E
:100B900060E040E050E03F01A1E0B0E0F50183817A
:100BA000F70183FD259183FF21917F01222309F421
:100BB00081C02E3519F44115510569F1872F90E058
:100BC0008417950744F42D3551F12D3221F4332348
:100BD00029F431E021C0332309F4622F322F832F0F
:100BE000869586958695F301E80FF11D832F877012
:100BF0004D0102C0880C991C8A95E2F720812829B2
:100C00002083361711F430E007C0361710F43F5F29
:100C1000E6CF3150E4CF71E04F5F5F4FBFCF33235A
:100C200019F08E8180628E83772359F0FE01319610
:100C30009E012F5D3F4F808180958193E217F307DE
:100C4000D1F7992493943E010894611C711CC5014D
:100C50000E942511AC0197FD25C086958695869545
:100C6000F301E80FF11D808190E09A012770307048
:100C700002C0959587952A95E2F780FD05C0CA01C7
:100C8000B5010E94F4110EC00115110519F0D8012B
:100C90004D938D010894C108D1089924C114D10441
:100CA000B1F602C0992031F40115110529F0F801BF
:100CB000108202C0EE24FF24C701A0960FB6F8945C
:100CC000DEBF0FBECDBFCF91DF911F910F91FF907F
:100CD000EF90DF90CF90BF90AF909F908F907F90DC
:100CE0006F9008952F923F925F926F927F928F92B2
:100CF0009F92AF92BF92CF92DF92EF92FF920F93AB
:100D00001F93CF93DF933C017B011A010E942511B1
:100D1000EC018B3239F08D3211F0552411C0B0E85E
:100D20005B2E01C055240894E108F108E114F10498
:100D300009F414C1C3010E942511EC0197FD0EC1F5
:100D4000CE010E94FC108936910521F08E36910566
:100D500099F51DC009EA10E01CC00894E108F108EB
:100D6000E114F10471F0C3010E942511EC0197FD1B
:100D700008C00E94FC10D81661F0CE01B3010E9499
:100D8000F41120E00C3A120709F0E8C008C006EAA6
:100D900010E0F8010F5F1F4FD490DD20F1F6095AE3
:100DA000104029F080E090E0A0E8BFE7CBC080E0F1
:100DB00090E0A0ECBFE7C6C0CC24DD2488249924B1
:100DC0005401AE014053242F4A3030F552E0552AE9
:100DD000852D90E0AC014870507052FE06C0452B46
:100DE00009F50894C11CD11C1DC0452B19F00894AD
:100DF000C108D108C501B40140E2CEDD4B015C0160
:100E000088E9881689E9980689E9A80689E1B8067B
:100E100048F094E0592A06C04E3F81F453FC0EC0BE
:100E2000E8E05E2A0894E108F108E114F10431F0E9
:100E3000C3010E942511EC0197FFC3CF51FE8EC064
:100E4000C53619F0C53409F045C00894E108F10829
:100E5000E114F10409F482C0C3010E942511EC01E0
:100E600097FD7CC08B3221F08D3269F4F0E15F2A6E
:100E70000894E108F108E114F10409F46FC0C3011A
:100E80000E942511EC01CE01C0970A9708F066C0B8
:100E900000E010E0B801882777FD8095982FAE011B
:100EA0004053242F40E278DD8B010894E108F108DB
:100EB000E114F10439F0C3010E942511EC01C0973F
:100EC0000A9740F3B80154FE03C0709561957F4FB7
:100ED000C60ED71EEF2831F0D7FD04C0CE01B301F6
:100EE0000E94F411C501B40184D1D7FE0DC0A5EC58
:100EF000EA2EA0E0FA2ED094C194D108D394C0E297
:100F0000D0E000E010E00DC0FDEDEF2EF0E0FF2E90
:100F1000F6CFF7012591359145915491A7D1CC1A7F
:100F2000DD0ACC16DD06A8F7D695C7950F5F1F4FD3
:100F30000630110529F0ECEFFFEFEE0EFF1EF1CFAA
:100F4000DC01CB0157FCB0582114310429F0F10128
:100F500080839183A283B38381E001C080E0DF912D
:100F6000CF911F910F91FF90EF90DF90CF90BF90A6
:100F7000AF909F908F907F906F905F903F902F9059
:100F800008955F926F927F928F929F92AF92BF92DD
:100F9000CF92DF92EF92FF920F931F93CF93DF9345
:100FA0004C015B013A01FC01178216825524FDC0F9
:100FB000812F90E00E94F410892B19F0C4011ADDF2
:100FC000F4C0153249F4F501F3FC6591F3FE61912B
:100FD0005F01653269F415E2C4010E94251197FD95
:100FE000F0C0181709F4E1C0B4010E94F411EEC07A
:100FF0006A3219F0162F00E006C0F3FC1591F3FEDB
:1010000011915F0101E0CC24DD240DC00260B60126
:1010100080E090E040E2C0DC6B01F501F3FC15914B
:10102000F3FE11915F01212F20532A3078F301FD47
:1010300004C0CC24CA94DC2C04C0C114D10409F42B
:10104000C5C0183621F01C3699F4F5010BC0F50126
:10105000F3FC6591F3FE6191683619F05F01162F7C
:1010600007C008600460F3FC1591F3FE11915F0165
:10107000112309F4ABC084E990E0612F70E00E9475
:101080000411892B09F4A2C0802F00FF03C0EE24B5
:10109000FF2407C0F301E080F18022E030E0620E1F
:1010A000731E1E3649F4F4014681578160E070E0FA
:1010B000C701202F65DC79C01336B9F481FD03C068
:1010C00011E0C12ED12CC4010E94251197FD79C0D9
:1010D000E114F10419F0F70181937F010894C1082C
:1010E000D108C114D10479F75EC01B3551F4C40195
:1010F000B601A701950129DD5C01009709F053C0F5
:101100004DC0C40177DC97FD5CC01F36D1F11037AC
:1011100038F41436A1F11936A9F11835C9F52DC0E6
:10112000133751F0143718F4103791F526C01537DE
:1011300031F1183769F521C0C4010E942511EC0175
:1011400097FD15C00E94F410892B29F0CE01B4013F
:101150000E94F4110CC0E114F10419F0F701C193DD
:101160007F010894C108D108C114D10429F7E11402
:10117000F104C9F0F701108216C0006403C00062D8
:1011800001C00061C401B601A701202F4CDC04C0DE
:10119000C401B601A701A6DD882329F4F4018381E7
:1011A000807379F413C000FF5394F401F380F501C8
:1011B000F3FC1591F3FE11915F01112309F0F8CEB4
:1011C00005C0552019F42FEF3FEF02C0252D30E068
:1011D000C901DF91CF911F910F91FF90EF90DF90A8
:1011E000CF90BF90AF909F908F907F906F905F90C7
:1011F0000895E89409C097FB3EF49095809570950A
:1012000061957F4F8F4F9F4F9923A9F0F92F96E952
:10121000BB279395F695879577956795B795F111C7
:10122000F8CFFAF4BB0F11F460FF1BC06F5F7F4F64
:101230008F4F9F4F16C0882311F096E911C0772376
:1012400021F09EE8872F762F05C0662371F096E87F
:10125000862F70E060E02AF09A95660F771F881F4E
:10126000DAF7880F9695879597F908950BD078C08F
:1012700069D028F06ED018F0952309F05AC05FC0ED
:101280001124A2C07ED0A0F3959FD1F3950F50E01A
:10129000551F629FF001729FBB27F00DB11D639F28
:1012A000AA27F00DB11DAA1F649F6627B00DA11DCE
:1012B000661F829F2227B00DA11D621F739FB00D74
:1012C000A11D621F839FA00D611D221F749F3327E4
:1012D000A00D611D231F849F600D211D822F762F7D
:1012E0006A2F11249F5750408AF0E1F088234AF07A
:1012F000EE0FFF1FBB1F661F771F881F91505040C6
:10130000A9F79E3F510570F014C05EC05F3FECF33B
:10131000983EDCF3869577956795B795F795E795B1
:101320009F5FC1F7FE2B880F911D9695879597F9C2
:10133000089597F99F6780E870E060E008959FEF57
:1013400080EC089500240A9416161706180609065C
:10135000089500240A94121613061406050608952B
:10136000092E0394000C11F4882352F0BB0F40F4B3
:10137000BF2B11F460FF04C06F5F7F4F8F4F9F4FF3
:10138000089557FD9058440F551F59F05F3F71F075
:101390004795880F97FB991F61F09F3F79F08795DC
:1013A0000895121613061406551FF2CF4695F1DF65
:1013B00008C0161617061806991FF1CF86957105F5
:1013C000610508940895E894BB2766277727CB0129
:1013D00097F90895DD98D59ADE9AD69ADF98D79A2C
:1013E000E5E6F0E080818B7F8083E4E6F0E08081B9
:1013F0008B7F808308958091630090E09695879518
:101400009695879581700895DE9ADD9827E030E003
:10141000482F50E0DE98CA01022E02C095958795AC
:101420000A94E2F780FF02C0DF9A01C0DF98DE9ADB
:10143000215030408FEF2F3F380761F727E030E031
:1014400070E0DE98CB01022E02C0959587950A9434
:10145000E2F780FF02C0DF9A01C0DF98DE9A2150D8
:1014600030408FEF2F3F380761F7DD9A08950F93D3
:101470001F93DE9ADD9827E030E0482F50E0DE9899
:10148000273011F481E007C0CA01022E02C09595F1
:1014900087950A94E2F780FF02C0DF9A01C0DF98C7
:1014A000DE9A215030408FEF2F3F380741F700E0A0
:1014B00010E0DE98A0DF082B173009F0000FDE9A4D
:1014C0001F5F1830B1F7DD9A802F1F910F9108959B
:1014D0001F920F920FB60F9211240F900FBE0F9014
:1014E0001F9018951F920F920FB60F9211248F9391
:1014F0009F938091BC018F5F8093BC018091BC0160
:101500008091BC018D33A1F41092BC018091BD018A
:101510009091BE0101969093BE018093BD01809190
:10152000BD019091BE0101969093BE018093BD01D3
:101530009F918F910F900FBE0F901F901895982F2D
:10154000443008F041E086B18C7F866086B950E077
:1015500036E0440F551F3A95E1F7892F903208F095
:101560008FE1842B87B986B1886886B910921801FB
:1015700078940895379903C08FEF9FEF08953598B9
:10158000369A809118018823E1F3F894109218019B
:101590008091160190911701789408951F920F92EF
:1015A0000FB60F9211242F933F938F939F9384B183
:1015B00025B130E0322F222790E0282B392B3093B1
:1015C00017012093160181E0809318019F918F915C
:1015D0003F912F910F900FBE0F901F9018951F9263
:1015E0000F920FB60F9211248F939F9387E083BFC2
:1015F00080911D0190911E01019690931E01809390
:101600001D0100B600FCFDCF9F918F910F900FBE82
:101610000F901F9018951F920F920FB60F921124E2
:101620008F939F9380911F01909120010196909339
:10163000200180931F019F918F910F900FBE0F90FB
:101640001F9018958CB95D9BFECF90E008955F9B2D
:10165000FECF8CB190E00895C0981FB8779BFECF65
:101660008FB1C09A0895C0988FB9779BFECF8FB184
:10167000C09A08950F931F93182F0091110180179E
:1016800091F1F894E9DF83FDFDCF1330A1F0033031
:1016900029F486E0E8DF89B78F7E89BF113019F41D
:1016A00087E0E1DF1DC0112349F4C598149A159A0B
:1016B0008C9A8D9A15C0023029F40BC0123039F47F
:1016C000033071F081E0CFDFC7DF86FFFDCF13303D
:1016D00039F483E0C8DF88E0C6DF89B7806189BF5D
:1016E0007894109311011F910F910895C0988FB9AC
:1016F000779BFECF8FB1872F99278FB9779BFECF2E
:101700008FB16FB9779BFECF8FB1C09A08959C01BE
:1017100080688FB9779BFECF8FB136952795822F42
:10172000807C8FB9779BFECF8FB108959C01C098C4
:101730008EE38FB9779BFECF8FB1F90190E007C0A0
:1017400080818FB9779BFECF8FB19F5F31969617BF
:10175000B8F3C09A0895A5E0B0E0E0EBFBE050C418
:1017600084E08BBB9FEF9ABB81E088BB97BB22E0F4
:1017700025BB94BB83E082BB8CEF81BB23B98DEF8B
:1017800082B91092620090936100109265008FE11F
:10179000809364001092620010926100D49ADC98E9
:1017A00085E087BF12BE83BF8EB585608EBD7894FD
:1017B000A29AAA9AA39AAB9AA19AA998A09AA89831
:1017C00009DEA79AAF98A69AAE98A59AAD98A49A62
:1017D000AC9810926200109261008F9A979ABD9A0D
:1017E000149815988C988D9888B38F6088BB80E585
:1017F0008DB9C09AC59A80EB94E00197F1F797985C
:1018000080ED97E00197F1F7979A88EE93E00197C2
:10181000F1F7F89488E162E971E468DF78948FEF7A
:1018200080931C01F89485E16FEF70EA5FDF789494
:101830008AB783608ABF80E188BFF89481E013DFB4
:1018400082E160E075E052DF87E166E57AE24EDF33
:101850008CE16FE770E04ADF89E164EC71E046DF1C
:1018600010921901F9DE86FFFDCFC0988AE691E05B
:101870004EDF89E78FB9779BFECF8FB189E78FB9AC
:10188000779BFECF8FB1C09AC09888E691E03FDF8A
:1018900085EB8FB9779BFECF8FB181E38FB9779BB3
:1018A000FECF8FB1C09A87E0DEDE789481E291E0CE
:1018B00090931B0180931A01DC9A1092900019B842
:1018C000599A86E0809395008AB188618AB983E04D
:1018D00091E09093C2018093C1019093C0018093E5
:1018E000BF019093C4018093C301AB9888EE93E04D
:1018F0000197F1F710929C0108EC10E028C080FFDE
:1019000002C0AF9A01C0AF9881FF02C0AE9A01C079
:10191000AE9882FF02C0AD9A01C0AD9883FF02C0AD
:10192000AC9A01C0AC98C8010197F1F781E368E077
:101930006BDD81E368E068DD8DE268E065DD81E311
:1019400068E062DD80919C018F5F80939C018091B3
:101950009C018031A0F216E0E12EB3E0FB2EA1EA5B
:10196000CA2EA1E0DA2EF9E0AF2EB12CE0E08E2EE7
:10197000E1E09E2E3E010894611C711C74E0472E2C
:10198000512C4C0E5D1E62E0262E312C2C0E3D1E7D
:10199000AA9AAB9A2DE22093280120932901609105
:1019A000C1017091C2018DE290E091D46091C101BA
:1019B0007091C2018DE290E08AD48091BC0100D088
:1019C00000D0E1EEF0E0ADB7BEB71296FC93EE9317
:1019D000119790E014969C938E931397A4D482E071
:1019E00080939C010F900F900F900F901CC10E2FB1
:1019F00010E0E0FF02C0AF9A01C0AF9801FF02C043
:101A0000AE9A01C0AE9802FF02C0AD9A01C0AD9877
:101A100003FF02C0AC9A01C0AC9885E08A95F1F74B
:101A2000AB9885E08A95F1F782EB21DDF801EE0FA6
:101A3000FF1FE00FF11FEE0FFF1FE85DFE4F8383D6
:101A400080919C018E9D800111240C5F1F4F83EBC0
:101A50000EDD085D1E4FD8018C9380919C018F9DF7
:101A600080011124000F111F0B5F1F4F84EBFFDC5F
:101A7000085D1E4FF801808380919C0190E00196E3
:101A80008C01000F111F080F191F000F111F85EB8C
:101A9000EEDC085D1E4FD8018C9380919C018E9DD9
:101AA00080011124095F1F4F86EBE1DC085D1E4FAA
:101AB000F801808380919C018E9D80011124085F34
:101AC0001F4F87EBD4DC085D1E4FD8018C93AB9A77
:101AD00010929B019EC09F9DC0011124820F911DF9
:101AE000880F991FFC01E45DFE4F2081DC0127FF78
:101AF00018C0A85DBE4F13966C91609570E06F5F43
:101B00007F4F209530E0322F2227620F731F8827E6
:101B100077FD8095982F6FDB20E030E040E85BEBAD
:101B200013C0622F70E0762F6627A85DBE4F139614
:101B30002C91620F711D882777FD8095982F5BDBB4
:101B400020E030E040E85BE391DB60939D0170931F
:101B50009E0180939F019093A001EDB7FEB73A9745
:101B60000FB6F894FEBF0FBEEDBF3196ADB7BEB74E
:101B70001296DC92CE921197B382A28295828482D1
:101B800080919D0190919E01A0919F01B091A00133
:101B900086839783A087B187E9D3EDB7FEB73A96DE
:101BA0000FB6F894FEBF0FBEEDBF8091A10160910A
:101BB000C1017091C20190E08AD38091A20160912D
:101BC000C1017091C20190E082D38091A301609124
:101BD000C1017091C20190E07AD38091A40160911B
:101BE000C1017091C20190E072D38091A501609112
:101BF000C1017091C20190E06AD36091C1017091FE
:101C0000C2018CE290E063D380919B018F5F80934F
:101C10009B0120919B0190919C01233008F45BCFA4
:101C20009F5F90939C01E0919C01E53008F4DFCE2A
:101C300080E894E89B838A8381E698E89D838C837F
:101C40008EE689831091110182E014DD0C99FECF9C
:101C50008499FCCFF89489E006DDC30161E066DD7C
:101C6000C20162E063DD89E191E061E05FDD82E174
:101C700091E062E05BDDC10162E058DD84E191E06A
:101C800062E054DD88E291E063E650DD84E0EBDC65
:101C9000849BFECF809119018F5F80931901812F62
:101CA000E9DC789482E080939C0104EF11E006C1A6
:101CB00080FF02C0AF9A01C0AF9881FF02C0AE9A08
:101CC00001C0AE9882FF02C0AD9A01C0AD9883FFFB
:101CD00002C0AC9A01C0AC988AE18A95F1F7AA9843
:101CE00080EF8A95F1F7C8010197F1F7C8010197D4
:101CF000F1F782E06AE041E022DC3CDC9093BB013A
:101D00008093BA0120919C0130E0F901EE0FFF1F92
:101D1000E20FF31FEE0FFF1FE85DFE4F292F332761
:101D20002383848381E06AE041E009DC23DC909333
:101D3000BB018093BA0120919C0130E0F901EE0FC4
:101D4000FF1FE20FF31FEE0FFF1FE65DFE4F492F4F
:101D5000552743832F5F3F4FF901EE0FFF1FE20F1F
:101D6000F31FEE0FFF1FE85DFE4F808383E06AE004
:101D700041E0E5DBFFDB9093BB018093BA0120914A
:101D80009C0130E0F901EE0FFF1FE20FF31FEE0F91
:101D9000FF1FE85DFE4F292F332727838087AA9AEC
:101DA00010929B0181C09F9DF0011124EE0FFF1F37
:101DB000DF01A85DBE4F13966C9170E06370707088
:101DC000762F6627E45DFE4F2081620F711D882704
:101DD00077FD8095982F0FDA23E333E343E55BE348
:101DE00045DA60939D0170939E0180939F019093CB
:101DF000A0012DB73EB72A5030400FB6F8943EBF31
:101E00000FBE2DBFEDB7FEB73196ADB7BEB7129678
:101E1000DC92CE921197B382A282958284826683ED
:101E2000778380879187A2D2EDB7FEB73A960FB637
:101E3000F894FEBF0FBEEDBF80919B01882379F51A
:101E40008091A1016091C1017091C20190E03FD2E7
:101E50008091A2016091C1017091C20190E037D2DE
:101E60008091A3016091C1017091C20190E02FD2D5
:101E70008091A4016091C1017091C20190E027D2CC
:101E80008091A5016091C1017091C20190E01FD2C3
:101E90006091C1017091C2018CE290E018D28091F2
:101EA0009B018F5F80939B0180919B0190919C018E
:101EB000882309F478CF9F5F90939C0180919C01C7
:101EC000853008F4F5CE6091C1017091C2018AE0BD
:101ED00090E0FDD15DCD9C01C0988FE78FB9779BD5
:101EE000FECF8FB1F90190E006C01FB8779BFECFFF
:101EF0008FB181939F5F9617C0F3C09A0895982F72
:101F0000C0988FE78FB9779BFECF8FB180E005C077
:101F10001FB8779BFECF2FB18F5F891710F40D99F3
:101F2000F7CFC09A08951F920F920FB60F920BB67B
:101F30000F9211240F931F932F933F934F935F930F
:101F40006F937F938F939F93AF93BF93EF93FF9381
:101F5000DF93CF9300D000D00F92CDB7DEB70C9BAC
:101F600005C00D9903C088E07EDB2EC0CE0101962E
:101F700061E0B1DF89818F7789838B3010F4BFDF17
:101F800023C000911A0110911B018B50F80180832E
:101F9000CE01029662E09FDFC801039661E09BDFFD
:101FA00084E0ADDFC801019662E095DFF80185812C
:101FB000968169816B508FDFCE01049662E08BDFE2
:101FC0008C818D52F80184830F900F900F900F90A9
:101FD0000F90CF91DF91FF91EF91BF91AF919F91C2
:101FE0008F917F916F915F914F913F912F911F91B1
:101FF0000F910F900BBE0F900FBE0F901F90189572
:102000002F923F924F925F926F927F928F929F9208
:10201000AF92BF92CF92DF92EF92FF920F931F93F6
:10202000CF93DF93CDB7DEB7CA1BDB0B0FB6F894A7
:10203000DEBF0FBECDBF0994283008F027E033275C
:10204000DA01990F311D87FD9160009661057105D8
:1020500039F432602E5F3D9330E32A95E1F708951D
:102060009F3F30F080387105610509F03C5F3C5FAF
:102070003D93913008F08068911DDF93CF931F93BB
:102080000F93FF92EF92192F987F9695E92F9695CF
:102090009695E90FFF27E15CFE4F99273327EE2441
:1020A000FF24A701E70105900894079428F4360F50
:1020B000E71EF81E491F511D660F771F881F991FC5
:1020C0000694A1F70590079428F4E70EF81E491F1F
:1020D000561FC11D770F881F991F661F0694A1F711
:1020E0000590079428F4F80E491F561FC71FD11DED
:1020F000880F991F661F771F0694A1F70590079414
:1021000020F4490F561FC71FD81F990F661F771F4E
:10211000881F0694A9F784911095177041F0D69501
:10212000C79557954795F794E7941A95C1F7E5EE4B
:10213000F0E0689415901591359165919591059011
:102140007FE27395E118F10A430B560BC90BD009D6
:10215000C0F7E10CF11E431F561FC91FD01D7EF4AE
:10216000703311F48A95E6CFE894015030F0080FEF
:102170000AF40027021708F4202F2395022F7A3340
:1021800028F079E37D932A95E9F710C07D932A958D
:1021900089F6069497956795379517951794E118E2
:1021A000F10A430B560BC90BD00998F023957E9189
:1021B00073957A3308F070E37C932013B8F77E911F
:1021C00070617D9330F0839571E37D9370E32A9580
:1021D000E1F71124EF90FF900F911F91CF91DF91C4
:1021E000992787FD90950895911176C1803219F055
:1021F00089508550D0F708959111089581548A51DE
:1022000008F4805E855A0895FC010590061621F0B9
:102210000020D9F7C00108953197CF010895FC013E
:102220000590615070400110D8F7809590958E0F01
:102230009F1F0895FC016150704001900110D8F774
:10224000809590958E0F9F1F0895CF93DF93EC019B
:102250004B8140FF1AC046FF0AC04F7B4B838E81E3
:102260009F8101969F838E838A81282F2BC042FFF6
:1022700013C0E881F9818081282F332727FD30950D
:102280002115310529F440624B832FEF3FEF1BC02E
:102290003196F983E88311C0EA85FB85CE01099563
:1022A0009C0197FF0AC09B812F5F3F4F11F080E296
:1022B00001C080E1892B8B83E8CF8E819F810196BD
:1022C0009F838E8330E0C901DF91CF9108950F93F2
:1022D0001F93CF93DF938C01EB018B8181FF1BC098
:1022E00082FF0DC02E813F818C819D812817390787
:1022F00064F4E881F9810193F983E88306C0E885F5
:10230000F985802F0995892B31F48E819F81019663
:102310009F838E8302C00FEF1FEFC801DF91CF9123
:102320001F910F910895DF93CF93CDB7DEB7FE01D4
:10233000359661917191A091C101B091C20113963E
:102340008C911397886013968C938091C101909122
:10235000C201AF010E941001E091C101F091C201E0
:102360002381277F2383CF91DF9108950F931F93BC
:10237000DF93CF93CDB7DEB72E970FB6F894DEBFBD
:102380000FBECDBF0D891E898F89988D97FF02C022
:1023900080E090E801979E838D831A83098386E00D
:1023A0008C839E01255E3F4FCE010196698D7A8D0B
:1023B000A9010E9410014D815E8157FD0AC02F8145
:1023C0003885421753070CF49A01020F131FF801C6
:1023D00010822E960FB6F894DEBF0FBECDBFCF9100
:1023E000DF911F910F9108959C01FB01838180FF74
:1023F00011C086FD0FC09FEF2F3F390759F0228390
:1024000080648F7D838386819781019797838683FC
:1024100030E002C02FEF3FEFC9010895FA01AA276B
:10242000283051F1203181F1E8946F936E7F6E5F17
:102430007F4F8F4F9F4FAF4FB1E03ED0B4E03CD0C5
:10244000670F781F891F9A1FA11D680F791F8A1FA8
:10245000911DA11D6A0F711D811D911DA11D20D00F
:1024600009F468943F912AE0269F11243019305DC9
:102470003193DEF6CF010895462F4770405D4193BA
:10248000B3E00FD0C9F7F6CF462F4F70405D4A3307
:1024900018F0495D31FD4052419302D0A9F7EACFCF
:1024A000B4E0A6959795879577956795BA95C9F7FE
:1024B00000976105710508959B01AC010A2E0694F1
:1024C0005795479537952795BA95C9F7620F731FAA
:1024D000841F951FA01D0895992788270895F894B3
:0224E000FFCF2C
:1024E2002566000000000300000000220B270B00FD
:0624F2000001B53179790B
:00000001FF
