:100000000DC100002AC1000028C1000026C1000067
:1000100024C100000C94A50E20C100001EC10000E8
:100020001CC100001AC1000018C1000016C1000068
:1000300014C100000C94530A10C100000EC100004E
:100040000CC100000AC1000008C1000006C1000088
:1000500004C100000C94710A00C10000FEC0000041
:10006000FCC00000FAC00000F8C00000F6C00000AC
:10007000F4C000000C94300AF0C00000EEC0000094
:10008000ECC00000EAC00000E8C00000E6C00000CC
:10009000E4C00000E2C00000E0C00000DEC00000DC
:1000A000DCC00000DAC00000D8C00000D6C00000EC
:1000B000D4C00000D2C00000D0C00000CEC00000FC
:1000C000CCC00000CAC00000C8C000006E616E0055
:1000D000696E66006364696E6F70737578585B65EE
:1000E000666745464700616E006E66696E697479A1
:1000F00000CDCCCC3D0AD7233C17B7D13877CC2BD9
:10010000329595E6241FB14F0A000020410000C837
:100110004200401C4620BCBE4CCA1B0E5AAEC59DB8
:100120007400407A10F35A00A0724E18090010A50E
:10013000D4E80000E87648170000E40B5402000001
:10014000CA9A3B000000E1F5050000809698000087
:100150000040420F000000A08601000000102700B0
:10016000000000E803000000006400000000000A36
:1001700000000000000100000000002C76D888DCA0
:10018000674F0823DFC1DFAE59E1B1B796E5E3E47D
:1001900053C63AE651997696E8E6C28426EB898CF6
:1001A0009B62ED407C6FFCEFBC9C9F40F2BAA56F58
:1001B000A5F490055A2AF75C936B6CF9676DC11B27
:1001C000FCE0E40D47FEF520E6B500D0ED902E03EF
:1001D00000943577050080841E080000204E0A0038
:1001E0000000C80C333333330F986E12831141EF84
:1001F0008D2114893BE65516CFFEE6DB18D1844BE2
:10020000381BF77C1D901DA4BBE424203284725E51
:10021000228100C9F124ECA1E53D270011241FBE75
:10022000CFEFD1E2DEBFCDBF12E0A0E0B2E0E4ED5F
:10023000F2E200E00BBF02C007900D92A231B107BD
:10024000D9F712E0A2E1B2E001C01D92AD3BB107C7
:10025000E1F70E94CF0A0C946811D2CE2F923F9200
:100260004F925F926F927F928F929F92AF92BF92C6
:10027000CF92DF92EF92FF920F931F93DF93CF9372
:10028000CDB7DEB761970FB6F894DEBF0FBECDBF16
:100290003C017F876E876A01FC0117821682838189
:1002A00081FD03C06FEF7FEF6FC39E012F5F3F4F54
:1002B000398B288BF3012381EE85FF8523FD859102
:1002C00023FF8191FF87EE87882309F45AC3853283
:1002D00051F4EE85FF8523FD859123FF8191FF87F2
:1002E000EE87853229F490E0B3010E948310E2CFBB
:1002F000982F10E0882499241032B0F49B3269F0D2
:100300009C3228F4903251F0933271F40BC09D323C
:1003100039F0903349F4116028C01260146025C090
:10032000186023C0106121C017FD2AC0892F805397
:100330008A3078F416FF06C0FAE09F9E902C1124B4
:10034000980E13C03AE0839E802C1124880E106210
:100350000CC09E3221F416FD14C3106406C09C36F6
:1003600011F4106802C0983659F4EE85FF8523FD1C
:10037000959123FF9191FF87EE87992309F0BCCFD8
:10038000892F8554833020F4812F8061905E07C0CF
:10039000892F8556833008F09FC1812F8F7E86FD7F
:1003A00002C076E0972E6FE3F62EF822953619F408
:1003B000F0E4FF2A07C0963619F420E8F22A02C0BA
:1003C00091109A94F7FE0AC03BE3391518F45CE3E8
:1003D000B52E02C0B92CB39427E009C047E04915F7
:1003E00020F4BB2447E0942EF7CF292DBB24C6016F
:1003F00004969D878C87F60160817181828193814B
:10040000AE014F5F5F4F0B2D0E94380F6C010981C9
:10041000202E332400FF04C003FD02C01DE209C0EA
:10042000F1FE02C01BE205C0F2FC02C010E001C0F8
:1004300010E2C1018C709070892BB9F1112311F475
:1004400083E001C084E0881510F088240AC0881A6F
:10045000F3FC07C080E290E0B3010E9483108A940D
:10046000C9F7112329F0812F90E0B3010E94831076
:1004700023FE03C00CEC10E00EC000ED10E00BC03A
:10048000E114F10409F0805290E0B3010E9483105E
:100490000F5F1F4F05C0EF2CFF24F0E1EF22FF2478
:1004A000F8018491882361F714C1F7FE12C0BC0CD7
:1004B00024FE04C08A81813309F4BA941B141CF011
:1004C000BB24B3942DC0F8E0FB1550F538E0B32EF3
:1004D00027C0F6FC25C0892D90E08C159D054CF0B9
:1004E0002CEFC2162FEFD20624F030E8F32A01C019
:1004F0009A94992049F0E2E0F0E0EC0FFD1FE90D3D
:10050000F11D80818033A1F3F7FE0AC0B92CB394AA
:10051000892D90E0C816D90614F0992401C09C18C2
:10052000F7FC03C025E030E009C01C141D041CF0DA
:1005300021E030E003C096012F5F3F4F112311F0FF
:100540002F5F3F4F992029F0892D90E00196280FC9
:10055000391F882D90E02817390714F0882401C02E
:10056000821A4F2C5524C20189709070892B39F062
:1005700008C080E290E0B3010E9483108A94882032
:10058000C1F7112329F0812F90E0B3010E9483105D
:1005900043FE07C008C080E390E0B3010E948310CF
:1005A0008A948820C1F7F7FE46C08601D7FE02C0B4
:1005B00000E010E076010894E11CF11CE01AF10A59
:1005C00041E050E04C0F5D1FE40EF51E26014B1874
:1005D0005108892D90E0AA24BB24A81AB90A5FEF1C
:1005E0000F3F150729F48EE290E0B3010E948310BB
:1005F000C016D10634F0401651061CF4F701808174
:1006000001C080E3015010400894E11CF11C0A1560
:100610001B052CF090E0B3010E948310E0CF0C1575
:100620001D0539F49A81963318F4953311F424FE9C
:1006300081E390E04BC08A81813309F00F7E90E026
:10064000B3010E9483109920A1F08EE290E0B301E3
:100650000E94831012E0E1E0F0E0EC0FFD1FE10FDB
:10066000F11D1F5F808190E0B3010E9483109A9476
:1006700091F744FC03C085E690E002C085E490E079
:10068000B3010E948310D7FC05C0C114D10441F40A
:1006900004FF06C0D094C194D108D3948DE201C068
:1006A0008BE290E0B3010E94831080E305C08F5F6E
:1006B00026EF3FEFC20ED31E3AE0C316D104BCF7BB
:1006C00090E0B3010E948310C601C096B3010E945E
:1006D0008310CC84DD8452C1933631F0933799F086
:1006E000933509F059C023C0F601808189835E01EA
:1006F0000894A11CB11C22E030E0C20ED31E21E000
:10070000E22EF12C12C0F601A080B18016FD03C0CC
:100710006FEF7FEF02C0692D70E022E030E0C20E83
:10072000D31EC5010E9436107C011F7713C0F6014D
:10073000A080B18016FD03C06FEF7FEF02C0692D6E
:1007400070E022E030E0C20ED31EC5010E942B10E3
:100750007C01106813FF07C01BC080E290E0B3016A
:100760000E9483108A94882D90E0E816F906A8F379
:100770000FC0F50117FD859117FF81915F0190E092
:10078000B3010E94831081108A940894E108F10853
:10079000E114F10471F7F2C0943611F0993689F53D
:1007A00017FF08C0F601208131814281538184E026
:1007B00090E00AC0F601808191819C01442737FDB9
:1007C0004095542F82E090E0C80ED91E9FE6F92E86
:1007D000F12257FF09C050954095309521953F4F24
:1007E0004F4F5F4F90E8F92ACA01B901AE014F5F40
:1007F0005F4F2AE030E00E940711E82EE889EE1AE8
:1008000041C0953721F41F7E2AE030E01CC0197FDB
:100810009F3661F0903720F4983509F0B2C00FC0D0
:10082000903739F0983709F0ACC004C028E030E0C8
:100830000AC0106114FD146020E130E004C014FD12
:10084000166020E132E017FF08C0F6016081718177
:100850008281938144E050E008C0F601808191815B
:10086000BC0180E090E042E050E0C40ED51EAE0135
:100870004F5F5F4F0E940711E82E5889E51A8FE7F6
:10088000F82EF122F6FE0BC08EEFF822E91438F4B0
:10089000F4FE07C0F2FC05C09FEEF92202C01E2D37
:1008A00001C0192DF4FE0DC0FE01EE0DF11D808179
:1008B000803319F4E9EEFE2208C01F5FF2FE05C086
:1008C00003C08F2D867809F01F5F0F2DF3FC14C035
:1008D000F0FE0FC0181510F09E2C0BC09E2C980C2B
:1008E000911A182D06C080E290E0B3010E94831097
:1008F0001F5F1815C0F304C0181510F4811A01C049
:10090000882404FF0FC080E390E0B3010E948310AD
:1009100002FF1DC001FD03C088E790E00EC088E51E
:1009200090E00BC0802F867891F001FF02C08BE22F
:1009300001C080E2F7FC8DE290E0B3010E948310D9
:1009400006C080E390E0B3010E9483109A94E914FA
:10095000C0F3EA94E1E0F0E0EC0FFD1FEE0DF11DB5
:10096000808190E0B3010E948310EE2091F706C0D1
:1009700080E290E0B3010E9483108A948820C1F73E
:1009800099CCF30166817781CB0161960FB6F8941B
:10099000DEBF0FBECDBFCF91DF911F910F91FF90B2
:1009A000EF90DF90CF90BF90AF909F908F907F900F
:1009B0006F905F904F903F902F900895FC0120FD25
:1009C00008C023FD05C022FF02C0738362835183E8
:1009D00040830895EF92FF920F931F9344FF02C04C
:1009E00033E011C046FF02C034E00DC0DB01FC0162
:1009F000AA0FBB1FEE1FFF1F1094D1F76A0F7B1FBA
:100A00008E1F9F1F31E0660F771F881F991F31507F
:100A1000D1F77B018C01E20EF11C011D111DA80113
:100A20009701B701CA011F910F91FF90EF900895B0
:100A30000F931F93CF93DF938C01C8010E94411045
:100A4000EC0197FD08C00E941010892BB1F7CE0170
:100A5000B8010E94ED10CE01DF91CF911F910F914F
:100A600008958F929F92AF92BF92DF92EF92FF9282
:100A70000F931F93CF93DF935C01EB014A01122F79
:100A80000E944110AC018B3219F08D3251F4106884
:100A9000219709F46BC0C5010E944110AC0197FD7C
:100AA00065C06DEFD62ED1228D2D807301F54033B8
:100AB000F1F4219709F446C0C5010E944110AC0130
:100AC00097FD40C082E0D82A483711F0483559F4E4
:100AD00080E4D82A2197B1F1C5010E944110AC01F0
:100AE00099232CF42FC0D6FC02C080E1D82AEE2432
:100AF000FF248701242F2053283088F0D4FC09C01C
:100B00002A3068F0D6FE05C02F7D822F81518630B5
:100B100028F0CA01B5010E94ED1011C02750C8018C
:100B2000B7014D2D57DF7B018C0182E0D82A219738
:100B300061F0C5010E944110AC0197FFDBCFD1FCF1
:100B400004C014C0EE24FF248701D7FE08C010950E
:100B50000095F094E094E11CF11C011D111DC401ED
:100B6000B801A7012D2D2ADF81E001C080E0DF91CF
:100B7000CF911F910F91FF90EF90DF90BF90AF90BA
:100B80009F908F9008956F927F928F929F92AF92D5
:100B9000BF92CF92DF92EF92FF920F931F93DF935A
:100BA000CF93CDB7DEB7A0970FB6F894DEBF0FBED8
:100BB000CDBF5C016B018A017901FE01319680E2B3
:100BC000DF011D928A95E9F770E030E060E040E0D7
:100BD00050E03F01A1E0B0E0F5018381F70183FD22
:100BE000259183FF21917F01222309F481C02E35B5
:100BF00019F44115510569F1872F90E08417950785
:100C000044F42D3551F12D3221F4332329F431E010
:100C100021C0332309F4622F322F832F86958695C6
:100C20008695F301E80FF11D832F87704D0102C0F7
:100C3000880C991C8A95E2F7208128292083361791
:100C400011F430E007C0361710F43F5FE6CF3150A3
:100C5000E4CF71E04F5F5F4FBFCF332319F08E8138
:100C600080628E83772359F0FE0131969E012F5DBD
:100C70003F4F808180958193E217F307D1F7992444
:100C800093943E010894611C711CC5010E9441109F
:100C9000AC0197FD25C0869586958695F301E80FF2
:100CA000F11D808190E09A012770307002C0959507
:100CB00087952A95E2F780FD05C0CA01B5010E941B
:100CC000ED100EC00115110519F0D8014D938D01DD
:100CD0000894C108D1089924C114D104B1F602C006
:100CE000992031F40115110529F0F801108202C094
:100CF000EE24FF24C701A0960FB6F894DEBF0FBE06
:100D0000CDBFCF91DF911F910F91FF90EF90DF90BA
:100D1000CF90BF90AF909F908F907F906F900895ED
:100D20002F923F925F926F927F928F929F92AF929B
:100D3000BF92CF92DF92EF92FF920F931F93CF93C8
:100D4000DF933C017B011A010E944110EC018B32C0
:100D500039F08D3211F0552411C0B0E85B2E01C07E
:100D600055240894E108F108E114F10409F414C1D0
:100D7000C3010E944110EC0197FD0EC1CE010E94FB
:100D800018108936910521F08E36910599F51DC010
:100D900009EE10E01CC00894E108F108E114F10428
:100DA00071F0C3010E944110EC0197FD08C00E9440
:100DB0001810D81661F0CE01B3010E94ED1020E0AA
:100DC0000C3E120709F0E8C008C006EE10E0F8017A
:100DD0000F5F1F4FD490DD20F1F6095E104029F01F
:100DE00080E090E0A0E8BFE7CBC080E090E0A0EC1E
:100DF000BFE7C6C0CC24DD24882499245401AE0169
:100E00004053242F4A3030F552E0552A852D90E08A
:100E1000AC014870507052FE06C0452B09F508948D
:100E2000C11CD11C1DC0452B19F00894C108D10864
:100E3000C501B40140E2CEDD4B015C0188E98816B2
:100E400089E9980689E9A80689E1B80648F094E09E
:100E5000592A06C04E3F81F453FC0EC0E8E05E2ADA
:100E60000894E108F108E114F10431F0C3010E9493
:100E70004110EC0197FFC3CF51FE8EC0C53619F06B
:100E8000C53409F045C00894E108F108E114F10403
:100E900009F482C0C3010E944110EC0197FD7CC09F
:100EA0008B3221F08D3269F4F0E15F2A0894E10879
:100EB000F108E114F10409F46FC0C3010E9441106C
:100EC000EC01CE01C0970A9708F066C000E010E080
:100ED000B801882777FD8095982FAE014053242FC5
:100EE00040E278DD8B010894E108F108E114F10497
:100EF00039F0C3010E944110EC01C0970A9740F3FA
:100F0000B80154FE03C0709561957F4FC60ED71E81
:100F1000EF2831F0D7FD04C0CE01B3010E94ED10DF
:100F2000C501B40180D1D7FE0DC0A5E0EA2EA1E035
:100F3000FA2ED094C194D108D394C0E2D0E000E05E
:100F400010E00DC0FDE1EF2EF1E0FF2EF6CFF7012E
:100F50002591359145915491A3D1CC1ADD0ACC1637
:100F6000DD06A8F7D695C7950F5F1F4F0630110510
:100F700029F0ECEFFFEFEE0EFF1EF1CFDC01CB010D
:100F800057FCB0582114310429F0F101808391837A
:100F9000A283B38381E001C080E0DF91CF911F91F4
:100FA0000F91FF90EF90DF90CF90BF90AF909F9008
:100FB0008F907F906F905F903F902F9008955F92F9
:100FC0006F927F928F929F92AF92BF92CF92DF9259
:100FD000EF92FF920F931F93CF93DF934C015B012E
:100FE0003A01FC01178216825524F9C0812F90E046
:100FF0000E941010892B19F0C4011ADDF0C01532BF
:1010000049F4F501F3FC6591F3FE61915F016532EE
:1010100069F415E2C4010E94411097FDECC0181755
:1010200009F4DDC0B4010E94ED10EAC06A3219F083
:10103000162F00E006C0F3FC1591F3FE11915F013D
:1010400001E0CC24DD240DC00260B60180E090E018
:1010500040E2C0DC6B01F501F3FC1591F3FE119148
:101060005F01212F20532A3078F301FD04C0CC24E6
:10107000CA94DC2C04C0C114D10409F4C1C01836D0
:1010800021F01C3699F4F5010BC0F501F3FC6591D4
:10109000F3FE6191683619F05F01162F07C00860F2
:1010A0000460F3FC1591F3FE11915F01112309F423
:1010B000A7C084ED90E0612F70E0C2D7892B09F4BE
:1010C0009FC0802F00FF03C0EE24FF2407C0F30160
:1010D000E080F18022E030E0620E731E1E3649F49B
:1010E000F4014681578160E070E0C701202F66DC83
:1010F00076C01336B1F481FD03C011E0C12ED12CAE
:10110000C401BFD797FD77C0E114F10419F0F701CE
:1011100081937F010894C108D108C114D10481F7DB
:101120005CC01B3551F4C401B601A70195012BDD4C
:101130005C01009709F051C04BC0C40179DC97FDF8
:101140005AC01F36C1F1103738F4143691F11936F0
:1011500099F11835B9F52BC0133751F0143718F43D
:10116000103781F524C0153721F1183759F51FC004
:10117000C40187D7EC0197FD14C052D7892B29F001
:10118000CE01B4010E94ED100CC0E114F10419F07D
:10119000F701C1937F010894C108D108C114D1049B
:1011A00039F7E114F104C9F0F701108216C00064A8
:1011B00003C0006201C00061C401B601A701202F75
:1011C00050DC04C0C401B601A701AADD882329F4BC
:1011D000F4018381807379F413C000FF5394F40108
:1011E000F380F501F3FC1591F3FE11915F011123DA
:1011F00009F0FCCE05C0552019F42FEF3FEF02C0D7
:10120000252D30E0C901DF91CF911F910F91FF9003
:10121000EF90DF90CF90BF90AF909F908F907F9096
:101220006F905F900895E89409C097FB3EF4909505
:101230008095709561957F4F8F4F9F4F9923A9F0AF
:10124000F92F96E9BB279395F6958795779567953E
:10125000B795F111F8CFFAF4BB0F11F460FF1BC082
:101260006F5F7F4F8F4F9F4F16C0882311F096E915
:1012700011C0772321F09EE8872F762F05C06623C3
:1012800071F096E8862F70E060E02AF09A95660F7C
:10129000771F881FDAF7880F9695879597F9089535
:1012A0000BD078C069D028F06ED018F0952309F0E3
:1012B0005AC05FC01124A2C07ED0A0F3959FD1F385
:1012C000950F50E0551F629FF001729FBB27F00DF4
:1012D000B11D639FAA27F00DB11DAA1F649F662749
:1012E000B00DA11D661F829F2227B00DA11D621F98
:1012F000739FB00DA11D621F839FA00D611D221F52
:10130000749F3327A00D611D231F849F600D211D35
:10131000822F762F6A2F11249F5750408AF0E1F0D8
:1013200088234AF0EE0FFF1FBB1F661F771F881F21
:1013300091505040A9F79E3F510570F014C05EC017
:101340005F3FECF3983EDCF3869577956795B7950C
:10135000F795E7959F5FC1F7FE2B880F911D969536
:10136000879597F9089597F99F6780E870E060E0A6
:1013700008959FEF80EC089500240A94161617062E
:1013800018060906089500240A9412161306140676
:1013900005060895092E0394000C11F4882352F0D9
:1013A000BB0F40F4BF2B11F460FF04C06F5F7F4F91
:1013B0008F4F9F4F089557FD9058440F551F59F078
:1013C0005F3F71F04795880F97FB991F61F09F3F32
:1013D00079F087950895121613061406551FF2CF5B
:1013E0004695F1DF08C0161617061806991FF1CFAB
:1013F00086957105610508940895E894BB276627D2
:101400007727CB0197F90895CF93DF93C82FD0E0CA
:1014100082958F708A3018F420E330E002C027E311
:1014200030E06091B9027091BA02A901480F511DD4
:10143000CA0169D69E012F70822F2A3018F420E34A
:1014400030E002C027E330E06091B9027091BA0247
:10145000A901480F511DCA0156D6DF91CF910895B9
:101460001F920F920FB60F9211242F933F938F93D9
:101470009F93809178002091790030E0322F2227CD
:1014800090E0282B392B309314022093130281E033
:10149000809315029F918F913F912F910F900FBED6
:1014A0000F901F9018951F920F920FB60F92112454
:1014B0008F939F9387E08093B10080911A0290915F
:1014C0001B02019690931B0280931A028091B60032
:1014D00081FDFCCF9F918F910F900FBE0F901F90B9
:1014E00018951F920F920FB60F9211248F939F930E
:1014F00080911C0290911D02019690931D02809391
:101500001C029F918F910F900FBE0F901F90189506
:10151000982F8093C6008091C00085FFFCCF892F53
:1015200090E008958091C00087FFFCCF8091C600B5
:1015300090E0089528981EBC0DB407FEFDCF8EB52F
:10154000289A089528988EBD0DB407FEFDCF8EB55C
:10155000289A089528988EBD0DB407FEFDCF8EB54C
:10156000872F99278EBD0DB407FEFDCF8EB56EBDBA
:101570000DB407FEFDCF8EB5289A08959C018068B2
:101580008EBD0DB407FEFDCF8EB536952795822F03
:10159000807C8EBD0DB407FEFDCF8EB50895A0E012
:1015A000B0E0E4EDFAE051C484E082B99FEF91B974
:1015B00081E085B994B922E028B997B983E08BB965
:1015C0008CEF8AB92EB98DEF8DB911BA90BB14BAD0
:1015D0008FE183BB1092C5001092C4008091C000BF
:1015E00082608093C00086E08093C2008091C10039
:1015F00088618093C10083E092E09093BA02809367
:10160000B9029093B8028093B7029093BC02809382
:10161000BB02579A5F9A259A6C986D985498559882
:1016200085B18F6085B980E58CBD289A2D9A80EBB5
:1016300094E00197F1F75F9880ED97E00197F1F75B
:101640005F9A88EE93E00197F1F7F89488E162E9F8
:1016500071E480DF78948FEF80931902F89485E12C
:101660006FEF70EA77DF789480916A0083608093EF
:101670006A0080E18CBBF89481E064DF82E160E085
:1016800075E068DF87E166E57AE264DF8CE16FE7A9
:1016900070E060DF89E164EC71E05CDF10921602BB
:1016A00049DF86FFFDCF28988AE691E067DF80E872
:1016B0008EBD0DB407FEFDCF8EB584E88EBD0DB492
:1016C00007FEFDCF8EB5289A289888E691E056DF70
:1016D00085EB8EBD0DB407FEFDCF8EB581E38EBDCB
:1016E0000DB407FEFDCF8EB5289A87E02BDF7894E6
:1016F00085E292E090932402809323028EE192E0AF
:101700009093180280931702809111028330D9F0D0
:10171000F89410DF83FDFDCF80911102823029F013
:1017200081E010DF07DF86FFFDCF83E00BDF88E07D
:1017300009DFEC9A789483E08093110204C0C6011B
:101740000197F1F70EC023E0B22ECEE9D2E009E016
:1017500010E090E0E92E92E0F92E84EFC82E81E0AF
:10176000D82E80911202882351F310921202E09138
:101770002302F09124028081813409F02FC1E0918D
:101780002302F09124028181833409F027C1109251
:1017900099021EC11092980211C1E0912302F091AA
:1017A00024028B9DC0011124820F911D0296AC0171
:1017B000440F551F9C0122503040E40FF51F8081DB
:1017C000220F331F87FF24C0E0912302F0912402EF
:1017D0002D5F3F4FE20FF31F6081E0912302F091F4
:1017E0002402E40FF51F2081609570E06F5F7F4F4A
:1017F000209530E0322F2227620F731F882777FD54
:101800008095982F12DD20E030E040E85BEB1EC0B1
:10181000E0912302F09124022D5F3F4FE20FF31F6E
:101820002081E0912302F0912402E40FF51F6081F2
:1018300070E0762F6627620F711D882777FD8095EF
:10184000982FF3DC20E030E040E85BE329DD609393
:101850009A0270939B0280939C0290939D022DB7F5
:101860003EB72A5030400FB6F8943EBF0FBE2DBF92
:10187000EDB7FEB73196ADB7BEB71296DC93CE93F7
:10188000119713830283F582E48280919A029091EA
:101890009B02A0919C02B0919D0286839783A087B2
:1018A000B1875DD42DB73EB7265F3F4F0FB6F89492
:1018B0003EBF0FBE2DBF6091B9027091BA0281E4A4
:1018C00090E021D46091B9027091BA0283E490E073
:1018D0001AD46091B9027091BA0283E490E013D4F3
:1018E0008091990291DD6091B9027091BA0280E213
:1018F00090E009D480919802882339F46091B9026C
:101900007091BA0288E590E00BC06091B9027091C5
:10191000BA02813019F489E590E002C08AE590E0CE
:10192000F2D380919E026091B9027091BA0290E068
:10193000EAD380919F026091B9027091BA0290E05F
:10194000E2D38091A0026091B9027091BA0290E056
:10195000DAD38091A1026091B9027091BA0290E04D
:10196000D2D38091A2026091B9027091BA0290E044
:10197000CAD38091A3026091B9027091BA0290E03B
:10198000C2D38091A4026091B9027091BA0290E032
:10199000BAD38091A5026091B9027091BA0290E029
:1019A000B2D38091A6026091B9027091BA0290E020
:1019B000AAD3809198028F5F809398022091980219
:1019C00080919902233008F4E8CE8F5F80939902CA
:1019D00080919902803108F4DDCE44C110929902C1
:1019E0003CC1109298022FC1E0912302F091240291
:1019F0008B9D90011124290F311DC9010296880F7A
:101A0000991FE80FF91F4081E0912302F091240211
:101A1000220F331F2D5F3F4FE20FF31F608170E0F5
:101A200063707070762F6627640F711D882777FDAD
:101A30008095982FFADB23E333E343E55BE330DC67
:101A400060939A0270939B0280939C0290939D02F4
:101A5000ADB7BEB71A970FB6F894BEBF0FBEADBFF5
:101A6000EDB7FEB731961296DC93CE9311971383A0
:101A70000283F582E48266837783808791876FD3C0
:101A80002DB73EB7265F3F4F0FB6F8943EBF0FBE4F
:101A90002DBF8091990290919802843008F5992386
:101AA00009F1913009F05CC06091B9027091BA02FD
:101AB00083E590E028D36091B9027091BA0280E585
:101AC00090E021D36091B9027091BA028CE490E069
:101AD0001AD36091B9027091BA0281E490E05BC0C0
:101AE0009923E1F46091B9027091BA0282E490E026
:101AF0000AD36091B9027091BA0285E490E003D3F1
:101B00006091B9027091BA028EE490E0FCD26091CB
:101B1000B9027091BA0284E490E03DC0913001F5C1
:101B20006091B9027091BA0286E490E0ECD26091C3
:101B3000B9027091BA028FE490E0E5D26091B902E7
:101B40007091BA0282E590E0DED26091B9027091A4
:101B5000BA0283E490E0D7D28091990284501EC0EB
:101B60006091B9027091BA0282E490E0CCD26091A7
:101B7000B9027091BA0289E490E0C5D26091B902CD
:101B80007091BA0281E490E0BED26091B902709186
:101B9000BA0283E590E0B7D28091990235DC60917A
:101BA000B9027091BA0280E290E0ADD280919E02BB
:101BB0006091B9027091BA0290E0A5D280919F0223
:101BC0006091B9027091BA0290E09DD28091A0021A
:101BD0006091B9027091BA0290E095D28091A10211
:101BE0006091B9027091BA0290E08DD28091A20208
:101BF0006091B9027091BA0290E085D28091A302FF
:101C00006091B9027091BA0290E07DD28091A402F5
:101C10006091B9027091BA0290E075D28091A502EC
:101C20006091B9027091BA0290E06DD28091A602E3
:101C30006091B9027091BA0290E065D280919802E9
:101C40008F5F8093980290919802809199029330CF
:101C500008F4CACE8F5F80939902809199028031F7
:101C600008F4BFCE6091B9027091BA0280E290E0B0
:101C70004AD26091B9027091BA0285E490E043D2F1
:101C80006091B9027091BA028EE490E03CD260910A
:101C9000B9027091BA0284E490E035D26091B90241
:101CA0007091BA028FE490E02ED26091B9027091E7
:101CB000BA0286E490E027D26091B9027091BA022C
:101CC00084E490E020D26091B9027091BA0281E47C
:101CD00090E019D26091B9027091BA0284E590E067
:101CE00012D26091B9027091BA0281E490E00BD2F5
:101CF00038CD9C0128988FE78EBD0DB407FEFDCF2F
:101D00008EB5F90190E007C01EBC0DB407FEFDCFF3
:101D10008EB581939F5F9617B8F3289A0895982FF0
:101D200028988FE78EBD0DB407FEFDCF8EB580E0FD
:101D300006C01EBC0DB407FEFDCF2EB58F5F891700
:101D400010F46599F6CF289A08951F920F920FB656
:101D50000F920BB60F9211240F931F932F933F9363
:101D60004F935F936F937F938F939F93AF93BF93A3
:101D7000EF93FF93DF93CF9300D000D00F92CDB7B6
:101D8000DEB7649B05C0659903C088E0DBDB38C023
:101D9000CE01019661E0ADDF89818F7789838B3039
:101DA00010F4BDDF2DC000911702109118028B5066
:101DB000F8018083CE01029662E09BDFC8010396A2
:101DC00061E097DF84E0ABDFC801019662E091DF5C
:101DD000F8018581968169816B508BDFCE01049675
:101DE00062E087DF8C818D52F80184838D8187FFCB
:101DF00007C084B392E0892784BB81E080931202FC
:101E00000F900F900F900F900F90CF91DF91FF9157
:101E1000EF91BF91AF919F918F917F916F915F9162
:101E20004F913F912F911F910F910F900BBE0F90EB
:101E30000FBE0F901F9018952F923F924F925F9276
:101E40006F927F928F929F92AF92BF92CF92DF92CA
:101E5000EF92FF920F931F93CF93DF93CDB7DEB72F
:101E6000CA1BDB0B0FB6F894DEBF0FBECDBF0994C3
:101E7000283008F027E03327DA01990F311D87FD5C
:101E8000916000966105710539F432602E5F3D93D3
:101E900030E32A95E1F708959F3F30F080387105CF
:101EA000610509F03C5F3C5F3D93913008F080682C
:101EB000911DDF93CF931F930F93FF92EF92192FF2
:101EC000987F9695E92F96959695E90FFF27E55807
:101ED000FE4F99273327EE24FF24A701E701059041
:101EE0000894079428F4360FE71EF81E491F511D69
:101EF000660F771F881F991F0694A1F70590079416
:101F000028F4E70EF81E491F561FC11D770F881FC2
:101F1000991F661F0694A1F70590079428F4F80E00
:101F2000491F561FC71FD11D880F991F661F771F96
:101F30000694A1F70590079420F4490F561FC71F78
:101F4000D81F990F661F771F881F0694A9F78491E1
:101F50001095177041F0D695C79557954795F7940A
:101F6000E7941A95C1F7E1E2F1E0689415901591B4
:101F700035916591959105907FE27395E118F10A8D
:101F8000430B560BC90BD009C0F7E10CF11E431FE0
:101F9000561FC91FD01D7EF4703311F48A95E6CF09
:101FA000E894015030F0080F0AF40027021708F4F3
:101FB000202F2395022F7A3328F079E37D932A95F9
:101FC000E9F710C07D932A9589F606949795679551
:101FD000379517951794E118F10A430B560BC90B67
:101FE000D00998F023957E9173957A3308F070E3C9
:101FF0007C932013B8F77E9170617D9330F08395C8
:1020000071E37D9370E32A95E1F71124EF90FF903F
:102010000F911F91CF91DF91992787FD909508959A
:10202000911153C1803219F089508550D0F708952D
:102030009111089581548A5108F4805E855A08955B
:10204000FC010590061621F00020D9F7C001089583
:102050003197CF010895FC01059061507040011047
:10206000D8F7809590958E0F9F1F0895FC016150C1
:10207000704001900110D8F7809590958E0F9F1FAA
:102080000895CF93DF93EC014B8140FF1AC046FFC8
:102090000AC04F7B4B838E819F8101969F838E83E5
:1020A0008A81282F2BC042FF13C0E881F9818081EB
:1020B000282F332727FD30952115310529F440625B
:1020C0004B832FEF3FEF1BC03196F983E88311C09C
:1020D000EA85FB85CE0109959C0197FF0AC09B818B
:1020E0002F5F3F4F11F080E201C080E1892B8B838D
:1020F000E8CF8E819F8101969F838E8330E0C90156
:10210000DF91CF9108950F931F93CF93DF938C01AD
:10211000EB018B8181FF1BC082FF0DC02E813F81AF
:102120008C819D812817390764F4E881F981019336
:10213000F983E88306C0E885F985802F0995892B06
:1021400031F48E819F8101969F838E8302C00FEFB1
:102150001FEFC801DF91CF911F910F9108950F9349
:102160001F93DF93CF93CDB7DEB72E970FB6F894BA
:10217000DEBF0FBECDBF0D891E898F89988D97FF59
:1021800002C080E090E801979E838D831A830983C3
:1021900086E08C839E01255E3F4FCE010196698DBE
:1021A0007A8DA9010E942E014D815E8157FD0AC0E2
:1021B0002F813885421753070CF49A01020F131F21
:1021C000F80110822E960FB6F894DEBF0FBECDBF79
:1021D000CF91DF911F910F9108959C01FB018381A5
:1021E00080FF11C086FD0FC09FEF2F3F390759F0C8
:1021F000228380648F7D8383868197810197978373
:10220000868330E002C02FEF3FEFC9010895FA0145
:10221000AA27283051F1203181F1E8946F936E7F25
:102220006E5F7F4F8F4F9F4FAF4FB1E03ED0B4E016
:102230003CD0670F781F891F9A1FA11D680F791F57
:102240008A1F911DA11D6A0F711D811D911DA11D68
:1022500020D009F468943F912AE0269F1124301978
:10226000305D3193DEF6CF010895462F4770405D13
:102270004193B3E00FD0C9F7F6CF462F4F70405DC2
:102280004A3318F0495D31FD4052419302D0A9F71D
:10229000EACFB4E0A6959795879577956795BA9517
:1022A000C9F700976105710508959B01AC010A2EDD
:1022B00006945795479537952795BA95C9F7620FB4
:1022C000731F841F951FA01D0895992788270895BF
:0422D000F894FFCFB0
:1022D4002566000000000300000000880A920A003E
:0222E4000001F7
:00000001FF
